{
  "contractName": "Product",
  "abi": [
    {
      "inputs": [
        {
          "internalType": "uint256",
          "name": "",
          "type": "uint256"
        }
      ],
      "name": "productItems",
      "outputs": [
        {
          "internalType": "uint256",
          "name": "productId",
          "type": "uint256"
        },
        {
          "internalType": "bytes32",
          "name": "productSN",
          "type": "bytes32"
        },
        {
          "internalType": "bytes32",
          "name": "productName",
          "type": "bytes32"
        },
        {
          "internalType": "bytes32",
          "name": "productBrand",
          "type": "bytes32"
        },
        {
          "internalType": "uint256",
          "name": "productPrice",
          "type": "uint256"
        },
        {
          "internalType": "uint256",
          "name": "manufacturingDate",
          "type": "uint256"
        },
        {
          "internalType": "bytes32",
          "name": "lotBatchNo",
          "type": "bytes32"
        },
        {
          "internalType": "bytes32",
          "name": "productStatus",
          "type": "bytes32"
        }
      ],
      "stateMutability": "view",
      "type": "function",
      "constant": true
    },
    {
      "inputs": [
        {
          "internalType": "bytes32",
          "name": "",
          "type": "bytes32"
        }
      ],
      "name": "productMap",
      "outputs": [
        {
          "internalType": "uint256",
          "name": "",
          "type": "uint256"
        }
      ],
      "stateMutability": "view",
      "type": "function",
      "constant": true
    },
    {
      "inputs": [
        {
          "internalType": "bytes32",
          "name": "",
          "type": "bytes32"
        }
      ],
      "name": "productsForSale",
      "outputs": [
        {
          "internalType": "bytes32",
          "name": "",
          "type": "bytes32"
        }
      ],
      "stateMutability": "view",
      "type": "function",
      "constant": true
    },
    {
      "inputs": [
        {
          "internalType": "bytes32",
          "name": "",
          "type": "bytes32"
        }
      ],
      "name": "productsManufactured",
      "outputs": [
        {
          "internalType": "bytes32",
          "name": "",
          "type": "bytes32"
        }
      ],
      "stateMutability": "view",
      "type": "function",
      "constant": true
    },
    {
      "inputs": [
        {
          "internalType": "bytes32",
          "name": "",
          "type": "bytes32"
        }
      ],
      "name": "productsSold",
      "outputs": [
        {
          "internalType": "bytes32",
          "name": "",
          "type": "bytes32"
        }
      ],
      "stateMutability": "view",
      "type": "function",
      "constant": true
    },
    {
      "inputs": [
        {
          "internalType": "bytes32",
          "name": "",
          "type": "bytes32"
        },
        {
          "internalType": "uint256",
          "name": "",
          "type": "uint256"
        }
      ],
      "name": "productsWithConsumer",
      "outputs": [
        {
          "internalType": "bytes32",
          "name": "",
          "type": "bytes32"
        }
      ],
      "stateMutability": "view",
      "type": "function",
      "constant": true
    },
    {
      "inputs": [
        {
          "internalType": "bytes32",
          "name": "",
          "type": "bytes32"
        },
        {
          "internalType": "uint256",
          "name": "",
          "type": "uint256"
        }
      ],
      "name": "productsWithSeller",
      "outputs": [
        {
          "internalType": "bytes32",
          "name": "",
          "type": "bytes32"
        }
      ],
      "stateMutability": "view",
      "type": "function",
      "constant": true
    },
    {
      "inputs": [
        {
          "internalType": "uint256",
          "name": "",
          "type": "uint256"
        }
      ],
      "name": "sellers",
      "outputs": [
        {
          "internalType": "uint256",
          "name": "sellerId",
          "type": "uint256"
        },
        {
          "internalType": "bytes32",
          "name": "sellerName",
          "type": "bytes32"
        },
        {
          "internalType": "bytes32",
          "name": "sellerBrand",
          "type": "bytes32"
        },
        {
          "internalType": "bytes32",
          "name": "sellerCode",
          "type": "bytes32"
        },
        {
          "internalType": "uint256",
          "name": "sellerNum",
          "type": "uint256"
        },
        {
          "internalType": "bytes32",
          "name": "sellerManager",
          "type": "bytes32"
        },
        {
          "internalType": "bytes32",
          "name": "sellerAddress",
          "type": "bytes32"
        }
      ],
      "stateMutability": "view",
      "type": "function",
      "constant": true
    },
    {
      "inputs": [
        {
          "internalType": "bytes32",
          "name": "",
          "type": "bytes32"
        },
        {
          "internalType": "uint256",
          "name": "",
          "type": "uint256"
        }
      ],
      "name": "sellersWithManufacturer",
      "outputs": [
        {
          "internalType": "bytes32",
          "name": "",
          "type": "bytes32"
        }
      ],
      "stateMutability": "view",
      "type": "function",
      "constant": true
    },
    {
      "inputs": [
        {
          "internalType": "bytes32",
          "name": "_manufacturerId",
          "type": "bytes32"
        },
        {
          "internalType": "bytes32",
          "name": "_sellerName",
          "type": "bytes32"
        },
        {
          "internalType": "bytes32",
          "name": "_sellerBrand",
          "type": "bytes32"
        },
        {
          "internalType": "bytes32",
          "name": "_sellerCode",
          "type": "bytes32"
        },
        {
          "internalType": "uint256",
          "name": "_sellerNum",
          "type": "uint256"
        },
        {
          "internalType": "bytes32",
          "name": "_sellerManager",
          "type": "bytes32"
        },
        {
          "internalType": "bytes32",
          "name": "_sellerAddress",
          "type": "bytes32"
        }
      ],
      "name": "addSeller",
      "outputs": [],
      "stateMutability": "nonpayable",
      "type": "function"
    },
    {
      "inputs": [],
      "name": "viewSellers",
      "outputs": [
        {
          "internalType": "uint256[]",
          "name": "",
          "type": "uint256[]"
        },
        {
          "internalType": "bytes32[]",
          "name": "",
          "type": "bytes32[]"
        },
        {
          "internalType": "bytes32[]",
          "name": "",
          "type": "bytes32[]"
        },
        {
          "internalType": "bytes32[]",
          "name": "",
          "type": "bytes32[]"
        },
        {
          "internalType": "uint256[]",
          "name": "",
          "type": "uint256[]"
        },
        {
          "internalType": "bytes32[]",
          "name": "",
          "type": "bytes32[]"
        },
        {
          "internalType": "bytes32[]",
          "name": "",
          "type": "bytes32[]"
        }
      ],
      "stateMutability": "view",
      "type": "function",
      "constant": true
    },
    {
      "inputs": [
        {
          "internalType": "bytes32",
          "name": "_manufacturerID",
          "type": "bytes32"
        },
        {
          "internalType": "bytes32",
          "name": "_productName",
          "type": "bytes32"
        },
        {
          "internalType": "bytes32",
          "name": "_productSN",
          "type": "bytes32"
        },
        {
          "internalType": "bytes32",
          "name": "_productBrand",
          "type": "bytes32"
        },
        {
          "internalType": "uint256",
          "name": "_productPrice",
          "type": "uint256"
        },
        {
          "internalType": "uint256",
          "name": "_manufacturingDate",
          "type": "uint256"
        },
        {
          "internalType": "bytes32",
          "name": "_lotBatchNo",
          "type": "bytes32"
        }
      ],
      "name": "addProduct",
      "outputs": [],
      "stateMutability": "nonpayable",
      "type": "function"
    },
    {
      "inputs": [],
      "name": "viewProductItems",
      "outputs": [
        {
          "components": [
            {
              "internalType": "uint256",
              "name": "productId",
              "type": "uint256"
            },
            {
              "internalType": "bytes32",
              "name": "productSN",
              "type": "bytes32"
            },
            {
              "internalType": "bytes32",
              "name": "productName",
              "type": "bytes32"
            },
            {
              "internalType": "bytes32",
              "name": "productBrand",
              "type": "bytes32"
            },
            {
              "internalType": "uint256",
              "name": "productPrice",
              "type": "uint256"
            },
            {
              "internalType": "uint256",
              "name": "manufacturingDate",
              "type": "uint256"
            },
            {
              "internalType": "bytes32",
              "name": "lotBatchNo",
              "type": "bytes32"
            },
            {
              "internalType": "bytes32",
              "name": "productStatus",
              "type": "bytes32"
            }
          ],
          "internalType": "struct Product.ProductItem[]",
          "name": "",
          "type": "tuple[]"
        }
      ],
      "stateMutability": "view",
      "type": "function",
      "constant": true
    },
    {
      "inputs": [
        {
          "internalType": "bytes32",
          "name": "_productSN",
          "type": "bytes32"
        },
        {
          "internalType": "bytes32",
          "name": "_sellerCode",
          "type": "bytes32"
        }
      ],
      "name": "manufacturerSellProduct",
      "outputs": [],
      "stateMutability": "nonpayable",
      "type": "function"
    },
    {
      "inputs": [
        {
          "internalType": "bytes32",
          "name": "_productSN",
          "type": "bytes32"
        },
        {
          "internalType": "bytes32",
          "name": "_consumerCode",
          "type": "bytes32"
        }
      ],
      "name": "sellerSellProduct",
      "outputs": [],
      "stateMutability": "nonpayable",
      "type": "function"
    },
    {
      "inputs": [
        {
          "internalType": "bytes32",
          "name": "_sellerCode",
          "type": "bytes32"
        }
      ],
      "name": "queryProductsList",
      "outputs": [
        {
          "internalType": "uint256[]",
          "name": "",
          "type": "uint256[]"
        },
        {
          "internalType": "bytes32[]",
          "name": "",
          "type": "bytes32[]"
        },
        {
          "internalType": "bytes32[]",
          "name": "",
          "type": "bytes32[]"
        },
        {
          "internalType": "bytes32[]",
          "name": "",
          "type": "bytes32[]"
        },
        {
          "internalType": "uint256[]",
          "name": "",
          "type": "uint256[]"
        },
        {
          "internalType": "bytes32[]",
          "name": "",
          "type": "bytes32[]"
        }
      ],
      "stateMutability": "view",
      "type": "function",
      "constant": true
    },
    {
      "inputs": [
        {
          "internalType": "bytes32",
          "name": "_manufacturerCode",
          "type": "bytes32"
        }
      ],
      "name": "querySellersList",
      "outputs": [
        {
          "internalType": "uint256[]",
          "name": "",
          "type": "uint256[]"
        },
        {
          "internalType": "bytes32[]",
          "name": "",
          "type": "bytes32[]"
        },
        {
          "internalType": "bytes32[]",
          "name": "",
          "type": "bytes32[]"
        },
        {
          "internalType": "bytes32[]",
          "name": "",
          "type": "bytes32[]"
        },
        {
          "internalType": "uint256[]",
          "name": "",
          "type": "uint256[]"
        },
        {
          "internalType": "bytes32[]",
          "name": "",
          "type": "bytes32[]"
        },
        {
          "internalType": "bytes32[]",
          "name": "",
          "type": "bytes32[]"
        }
      ],
      "stateMutability": "view",
      "type": "function",
      "constant": true
    },
    {
      "inputs": [
        {
          "internalType": "bytes32",
          "name": "_consumerCode",
          "type": "bytes32"
        }
      ],
      "name": "getPurchaseHistory",
      "outputs": [
        {
          "internalType": "bytes32[]",
          "name": "",
          "type": "bytes32[]"
        },
        {
          "internalType": "bytes32[]",
          "name": "",
          "type": "bytes32[]"
        },
        {
          "internalType": "bytes32[]",
          "name": "",
          "type": "bytes32[]"
        },
        {
          "internalType": "uint256[]",
          "name": "",
          "type": "uint256[]"
        },
        {
          "internalType": "bytes32[]",
          "name": "",
          "type": "bytes32[]"
        }
      ],
      "stateMutability": "view",
      "type": "function",
      "constant": true
    },
    {
      "inputs": [
        {
          "internalType": "bytes32",
          "name": "_productSN",
          "type": "bytes32"
        },
        {
          "internalType": "bytes32",
          "name": "_consumerCode",
          "type": "bytes32"
        }
      ],
      "name": "verifyProduct",
      "outputs": [
        {
          "internalType": "bool",
          "name": "",
          "type": "bool"
        }
      ],
      "stateMutability": "view",
      "type": "function",
      "constant": true
    }
  ],
  "bytecode": "0x608060405234801561001057600080fd5b50612501806100206000396000f3fe608060405234801561001057600080fd5b50600436106101215760003560e01c80639cd777dd116100ad578063c20805b411610071578063c20805b414610367578063caaf275114610397578063cd4f6a2e146103ce578063cee26ed5146103fe578063e262113f1461043457610121565b80639cd777dd1461029b5780639ea4695d146102cb578063a090f47c146102ff578063a5882b941461032f578063b0c7ad941461034b57610121565b80631b3658c8116100f45780631b3658c8146101ce578063344b5d51146101ea5780634b9930011461021a5780638577a7011461024a57806392162bc41461026657610121565b8063032f95e614610126578063100b6ba21461014a578063130aa81f1461017a5780631836bd4b146101b0575b600080fd5b61012e610464565b6040516101419796959493929190611cee565b60405180910390f35b610164600480360381019061015f9190611dbf565b610851565b6040516101719190611dfb565b60405180910390f35b610194600480360381019061018f9190611dbf565b610869565b6040516101a79796959493929190611cee565b60405180910390f35b6101b8610d2c565b6040516101c59190611f68565b60405180910390f35b6101e860048036038101906101e39190611fb6565b610eb8565b005b61020460048036038101906101ff9190612058565b610fa4565b60405161021191906120b3565b60405180910390f35b610234600480360381019061022f91906120ce565b610fc4565b604051610241919061211d565b60405180910390f35b610264600480360381019061025f9190612058565b610ff5565b005b610280600480360381019061027b9190611dbf565b61104b565b60405161029296959493929190612138565b60405180910390f35b6102b560048036038101906102b091906120ce565b611484565b6040516102c2919061211d565b60405180910390f35b6102e560048036038101906102e09190611dbf565b6114b5565b6040516102f69594939291906121c3565b60405180910390f35b61031960048036038101906103149190611dbf565b6117d1565b604051610326919061211d565b60405180910390f35b61034960048036038101906103449190612239565b6117e9565b005b61036560048036038101906103609190612058565b611900565b005b610381600480360381019061037c9190611dbf565b611a1f565b60405161038e919061211d565b60405180910390f35b6103b160048036038101906103ac91906122db565b611a37565b6040516103c5989796959493929190612308565b60405180910390f35b6103e860048036038101906103e39190611dbf565b611a7f565b6040516103f5919061211d565b60405180910390f35b610418600480360381019061041391906122db565b611a97565b60405161042b9796959493929190612386565b60405180910390f35b61044e600480360381019061044991906120ce565b611ad9565b60405161045b919061211d565b60405180910390f35b60608060608060608060606000805467ffffffffffffffff81111561048c5761048b6123f5565b5b6040519080825280602002602001820160405280156104ba5781602001602082028036833780820191505090505b5090506000805467ffffffffffffffff8111156104da576104d96123f5565b5b6040519080825280602002602001820160405280156105085781602001602082028036833780820191505090505b5090506000805467ffffffffffffffff811115610528576105276123f5565b5b6040519080825280602002602001820160405280156105565781602001602082028036833780820191505090505b5090506000805467ffffffffffffffff811115610576576105756123f5565b5b6040519080825280602002602001820160405280156105a45781602001602082028036833780820191505090505b5090506000805467ffffffffffffffff8111156105c4576105c36123f5565b5b6040519080825280602002602001820160405280156105f25781602001602082028036833780820191505090505b5090506000805467ffffffffffffffff811115610612576106116123f5565b5b6040519080825280602002602001820160405280156106405781602001602082028036833780820191505090505b5090506000805467ffffffffffffffff8111156106605761065f6123f5565b5b60405190808252806020026020018201604052801561068e5781602001602082028036833780820191505090505b50905060005b60005481101561082b5760026000828152602001908152602001600020600001548882815181106106c8576106c7612424565b5b60200260200101818152505060026000828152602001908152602001600020600101548782815181106106fe576106fd612424565b5b602002602001018181525050600260008281526020019081526020016000206002015486828151811061073457610733612424565b5b602002602001018181525050600260008281526020019081526020016000206003015485828151811061076a57610769612424565b5b60200260200101818152505060026000828152602001908152602001600020600401548482815181106107a05761079f612424565b5b60200260200101818152505060026000828152602001908152602001600020600501548382815181106107d6576107d5612424565b5b602002602001018181525050600260008281526020019081526020016000206006015482828151811061080c5761080b612424565b5b602002602001018181525050808061082390612482565b915050610694565b50868686868686869d509d509d509d509d509d509d505050505050505090919293949596565b60046020528060005260406000206000915090505481565b60608060608060608060606000600a60008a81526020019081526020016000208054806020026020016040519081016040528092919081815260200182805480156108d357602002820191906000526020600020905b8154815260200190600101908083116108bf575b50505050509050600080805467ffffffffffffffff8111156108f8576108f76123f5565b5b6040519080825280602002602001820160405280156109265781602001602082028036833780820191505090505b5090506000805467ffffffffffffffff811115610946576109456123f5565b5b6040519080825280602002602001820160405280156109745781602001602082028036833780820191505090505b5090506000805467ffffffffffffffff811115610994576109936123f5565b5b6040519080825280602002602001820160405280156109c25781602001602082028036833780820191505090505b5090506000805467ffffffffffffffff8111156109e2576109e16123f5565b5b604051908082528060200260200182016040528015610a105781602001602082028036833780820191505090505b5090506000805467ffffffffffffffff811115610a3057610a2f6123f5565b5b604051908082528060200260200182016040528015610a5e5781602001602082028036833780820191505090505b5090506000805467ffffffffffffffff811115610a7e57610a7d6123f5565b5b604051908082528060200260200182016040528015610aac5781602001602082028036833780820191505090505b5090506000805467ffffffffffffffff811115610acc57610acb6123f5565b5b604051908082528060200260200182016040528015610afa5781602001602082028036833780820191505090505b50905060005b600054811015610d025760005b8a51811015610cee578a8181518110610b2957610b28612424565b5b602002602001015160026000848152602001908152602001600020600301541415610cdb576002600083815260200190815260200160002060000154898b81518110610b7857610b77612424565b5b6020026020010181815250506002600083815260200190815260200160002060010154888b81518110610bae57610bad612424565b5b6020026020010181815250506002600083815260200190815260200160002060020154878b81518110610be457610be3612424565b5b6020026020010181815250506002600083815260200190815260200160002060030154868b81518110610c1a57610c19612424565b5b6020026020010181815250506002600083815260200190815260200160002060040154858b81518110610c5057610c4f612424565b5b6020026020010181815250506002600083815260200190815260200160002060050154848b81518110610c8657610c85612424565b5b6020026020010181815250506002600083815260200190815260200160002060060154838b81518110610cbc57610cbb612424565b5b6020026020010181815250508980610cd390612482565b9a5050610cee565b8080610ce690612482565b915050610b0d565b508080610cfa90612482565b915050610b00565b50868686868686869f509f509f509f509f509f509f50505050505050505050919395979092949650565b6060600060015467ffffffffffffffff811115610d4c57610d4b6123f5565b5b604051908082528060200260200182016040528015610d8557816020015b610d72611b0a565b815260200190600190039081610d6a5790505b50905060005b600154811015610eb057604051806101000160405280600360008481526020019081526020016000206000015481526020016003600084815260200190815260200160002060010154815260200160036000848152602001908152602001600020600201548152602001600360008481526020019081526020016000206003015481526020016003600084815260200190815260200160002060040154815260200160036000848152602001908152602001600020600501548152602001600360008481526020019081526020016000206006015481526020016003600084815260200190815260200160002060070154815250828281518110610e9257610e91612424565b5b60200260200101819052508080610ea890612482565b915050610d8b565b508091505090565b6040518060e001604052806000548152602001878152602001868152602001858152602001848152602001838152602001828152506002600080548152602001908152602001600020600082015181600001556020820151816001015560408201518160020155606082015181600301556080820151816004015560a0820151816005015560c08201518160060155905050600080815480929190610f5c90612482565b9190505550600a600088815260200190815260200160002084908060018154018082558091505060019003906000526020600020016000909190919091505550505050505050565b600081600760008581526020019081526020016000205414905092915050565b60086020528160005260406000208181548110610fe057600080fd5b90600052602060002001600091509150505481565b600860008281526020019081526020016000208290806001815401808255809150506001900390600052602060002001600090919091909150558060066000848152602001908152602001600020819055505050565b6060806060806060806000600860008981526020019081526020016000208054806020026020016040519081016040528092919081815260200182805480156110b357602002820191906000526020600020905b81548152602001906001019080831161109f575b5050505050905060008060015467ffffffffffffffff8111156110d9576110d86123f5565b5b6040519080825280602002602001820160405280156111075781602001602082028036833780820191505090505b509050600060015467ffffffffffffffff811115611128576111276123f5565b5b6040519080825280602002602001820160405280156111565781602001602082028036833780820191505090505b509050600060015467ffffffffffffffff811115611177576111766123f5565b5b6040519080825280602002602001820160405280156111a55781602001602082028036833780820191505090505b509050600060015467ffffffffffffffff8111156111c6576111c56123f5565b5b6040519080825280602002602001820160405280156111f45781602001602082028036833780820191505090505b509050600060015467ffffffffffffffff811115611215576112146123f5565b5b6040519080825280602002602001820160405280156112435781602001602082028036833780820191505090505b509050600060015467ffffffffffffffff811115611264576112636123f5565b5b6040519080825280602002602001820160405280156112925781602001602082028036833780820191505090505b50905060005b6001548110156114605760005b895181101561144c578981815181106112c1576112c0612424565b5b602002602001015160036000848152602001908152602001600020600101541415611439576003600083815260200190815260200160002060000154888a815181106113105761130f612424565b5b6020026020010181815250506003600083815260200190815260200160002060010154878a8151811061134657611345612424565b5b6020026020010181815250506003600083815260200190815260200160002060020154868a8151811061137c5761137b612424565b5b6020026020010181815250506003600083815260200190815260200160002060030154858a815181106113b2576113b1612424565b5b6020026020010181815250506003600083815260200190815260200160002060040154848a815181106113e8576113e7612424565b5b6020026020010181815250506003600083815260200190815260200160002060070154838a8151811061141e5761141d612424565b5b602002602001018181525050888061143590612482565b9950505b808061144490612482565b9150506112a5565b50808061145890612482565b915050611298565b508585858585859d509d509d509d509d509d50505050505050505091939550919395565b600960205281600052604060002081815481106114a057600080fd5b90600052602060002001600091509150505481565b606080606080606060006009600088815260200190815260200160002080548060200260200160405190810160405280929190818152602001828054801561151c57602002820191906000526020600020905b815481526020019060010190808311611508575b505050505090506000815167ffffffffffffffff8111156115405761153f6123f5565b5b60405190808252806020026020018201604052801561156e5781602001602082028036833780820191505090505b5090506000825167ffffffffffffffff81111561158e5761158d6123f5565b5b6040519080825280602002602001820160405280156115bc5781602001602082028036833780820191505090505b5090506000835167ffffffffffffffff8111156115dc576115db6123f5565b5b60405190808252806020026020018201604052801561160a5781602001602082028036833780820191505090505b5090506000845167ffffffffffffffff81111561162a576116296123f5565b5b6040519080825280602002602001820160405280156116585781602001602082028036833780820191505090505b50905060005b85518110156117b3576006600087838151811061167e5761167d612424565b5b60200260200101518152602001908152602001600020548582815181106116a8576116a7612424565b5b602002602001018181525050600560008783815181106116cb576116ca612424565b5b60200260200101518152602001908152602001600020548482815181106116f5576116f4612424565b5b60200260200101818152505060006004600088848151811061171a57611719612424565b5b60200260200101518152602001908152602001600020549050600360008281526020019081526020016000206005015484838151811061175d5761175c612424565b5b602002602001018181525050600360008281526020019081526020016000206006015483838151811061179357611792612424565b5b6020026020010181815250505080806117ab90612482565b91505061165e565b50848484848499509950995099509950505050505091939590929450565b60066020528060005260406000206000915090505481565b60405180610100016040528060015481526020018681526020018781526020018581526020018481526020018381526020018281526020017f417661696c61626c650000000000000000000000000000000000000000000000815250600360006001548152602001908152602001600020600082015181600001556020820151816001015560408201518160020155606082015181600301556080820151816004015560a0820151816005015560c0820151816006015560e082015181600701559050506001546004600087815260200190815260200160002081905550600160008154809291906118da90612482565b919050555086600560008781526020019081526020016000208190555050505050505050565b60008060005b60015481101561194957846003600083815260200190815260200160002060010154141561193657809150611949565b808061194190612482565b915050611906565b50600360008281526020019081526020016000206007015491507f417661696c61626c650000000000000000000000000000000000000000000000821415611a19577f4e410000000000000000000000000000000000000000000000000000000000006003600083815260200190815260200160002060070181905550600960008481526020019081526020016000208490806001815401808255809150506001900390600052602060002001600090919091909150558260076000868152602001908152602001600020819055505b50505050565b60056020528060005260406000206000915090505481565b60036020528060005260406000206000915090508060000154908060010154908060020154908060030154908060040154908060050154908060060154908060070154905088565b60076020528060005260406000206000915090505481565b60026020528060005260406000206000915090508060000154908060010154908060020154908060030154908060040154908060050154908060060154905087565b600a6020528160005260406000208181548110611af557600080fd5b90600052602060002001600091509150505481565b60405180610100016040528060008152602001600080191681526020016000801916815260200160008019168152602001600081526020016000815260200160008019168152602001600080191681525090565b600081519050919050565b600082825260208201905092915050565b6000819050602082019050919050565b6000819050919050565b611b9d81611b8a565b82525050565b6000611baf8383611b94565b60208301905092915050565b6000602082019050919050565b6000611bd382611b5e565b611bdd8185611b69565b9350611be883611b7a565b8060005b83811015611c19578151611c008882611ba3565b9750611c0b83611bbb565b925050600181019050611bec565b5085935050505092915050565b600081519050919050565b600082825260208201905092915050565b6000819050602082019050919050565b6000819050919050565b611c6581611c52565b82525050565b6000611c778383611c5c565b60208301905092915050565b6000602082019050919050565b6000611c9b82611c26565b611ca58185611c31565b9350611cb083611c42565b8060005b83811015611ce1578151611cc88882611c6b565b9750611cd383611c83565b925050600181019050611cb4565b5085935050505092915050565b600060e0820190508181036000830152611d08818a611bc8565b90508181036020830152611d1c8189611c90565b90508181036040830152611d308188611c90565b90508181036060830152611d448187611c90565b90508181036080830152611d588186611bc8565b905081810360a0830152611d6c8185611c90565b905081810360c0830152611d808184611c90565b905098975050505050505050565b600080fd5b611d9c81611c52565b8114611da757600080fd5b50565b600081359050611db981611d93565b92915050565b600060208284031215611dd557611dd4611d8e565b5b6000611de384828501611daa565b91505092915050565b611df581611b8a565b82525050565b6000602082019050611e106000830184611dec565b92915050565b600081519050919050565b600082825260208201905092915050565b6000819050602082019050919050565b61010082016000820151611e596000850182611b94565b506020820151611e6c6020850182611c5c565b506040820151611e7f6040850182611c5c565b506060820151611e926060850182611c5c565b506080820151611ea56080850182611b94565b5060a0820151611eb860a0850182611b94565b5060c0820151611ecb60c0850182611c5c565b5060e0820151611ede60e0850182611c5c565b50505050565b6000611ef08383611e42565b6101008301905092915050565b6000602082019050919050565b6000611f1582611e16565b611f1f8185611e21565b9350611f2a83611e32565b8060005b83811015611f5b578151611f428882611ee4565b9750611f4d83611efd565b925050600181019050611f2e565b5085935050505092915050565b60006020820190508181036000830152611f828184611f0a565b905092915050565b611f9381611b8a565b8114611f9e57600080fd5b50565b600081359050611fb081611f8a565b92915050565b600080600080600080600060e0888a031215611fd557611fd4611d8e565b5b6000611fe38a828b01611daa565b9750506020611ff48a828b01611daa565b96505060406120058a828b01611daa565b95505060606120168a828b01611daa565b94505060806120278a828b01611fa1565b93505060a06120388a828b01611daa565b92505060c06120498a828b01611daa565b91505092959891949750929550565b6000806040838503121561206f5761206e611d8e565b5b600061207d85828601611daa565b925050602061208e85828601611daa565b9150509250929050565b60008115159050919050565b6120ad81612098565b82525050565b60006020820190506120c860008301846120a4565b92915050565b600080604083850312156120e5576120e4611d8e565b5b60006120f385828601611daa565b925050602061210485828601611fa1565b9150509250929050565b61211781611c52565b82525050565b6000602082019050612132600083018461210e565b92915050565b600060c08201905081810360008301526121528189611bc8565b905081810360208301526121668188611c90565b9050818103604083015261217a8187611c90565b9050818103606083015261218e8186611c90565b905081810360808301526121a28185611bc8565b905081810360a08301526121b68184611c90565b9050979650505050505050565b600060a08201905081810360008301526121dd8188611c90565b905081810360208301526121f18187611c90565b905081810360408301526122058186611c90565b905081810360608301526122198185611bc8565b9050818103608083015261222d8184611c90565b90509695505050505050565b600080600080600080600060e0888a03121561225857612257611d8e565b5b60006122668a828b01611daa565b97505060206122778a828b01611daa565b96505060406122888a828b01611daa565b95505060606122998a828b01611daa565b94505060806122aa8a828b01611fa1565b93505060a06122bb8a828b01611fa1565b92505060c06122cc8a828b01611daa565b91505092959891949750929550565b6000602082840312156122f1576122f0611d8e565b5b60006122ff84828501611fa1565b91505092915050565b60006101008201905061231e600083018b611dec565b61232b602083018a61210e565b612338604083018961210e565b612345606083018861210e565b6123526080830187611dec565b61235f60a0830186611dec565b61236c60c083018561210e565b61237960e083018461210e565b9998505050505050505050565b600060e08201905061239b600083018a611dec565b6123a8602083018961210e565b6123b5604083018861210e565b6123c2606083018761210e565b6123cf6080830186611dec565b6123dc60a083018561210e565b6123e960c083018461210e565b98975050505050505050565b7f4e487b7100000000000000000000000000000000000000000000000000000000600052604160045260246000fd5b7f4e487b7100000000000000000000000000000000000000000000000000000000600052603260045260246000fd5b7f4e487b7100000000000000000000000000000000000000000000000000000000600052601160045260246000fd5b600061248d82611b8a565b91507fffffffffffffffffffffffffffffffffffffffffffffffffffffffffffffffff8214156124c0576124bf612453565b5b60018201905091905056fea26469706673582212200047c41a39e7aef247efddf525da085f9704547d0ea6153826c900627e91a01d64736f6c634300080c0033",
  "immutableReferences": {},
  "source": "pragma solidity ^0.8.12;\r\n\r\ncontract Product {\r\n    uint256 sellerCount;\r\n    uint256 productCount;\r\n\r\n    struct Seller {\r\n        uint256 sellerId;\r\n        bytes32 sellerName;\r\n        bytes32 sellerBrand;\r\n        bytes32 sellerCode;\r\n        uint256 sellerNum;\r\n        bytes32 sellerManager;\r\n        bytes32 sellerAddress;\r\n    }\r\n\r\n    mapping(uint => Seller) public sellers;\r\n\r\n    struct ProductItem {\r\n        uint256 productId;\r\n        bytes32 productSN;\r\n        bytes32 productName;\r\n        bytes32 productBrand;\r\n        uint256 productPrice;\r\n        uint256 manufacturingDate; // New field\r\n        bytes32 lotBatchNo; // New field\r\n        bytes32 productStatus;\r\n    }\r\n\r\n    mapping(uint256 => ProductItem) public productItems;\r\n    mapping(bytes32 => uint256) public productMap;\r\n    mapping(bytes32 => bytes32) public productsManufactured;\r\n    mapping(bytes32 => bytes32) public productsForSale;\r\n    mapping(bytes32 => bytes32) public productsSold;\r\n    mapping(bytes32 => bytes32[]) public productsWithSeller;\r\n    mapping(bytes32 => bytes32[]) public productsWithConsumer;\r\n    mapping(bytes32 => bytes32[]) public sellersWithManufacturer;\r\n\r\n    //SELLER SECTION\r\n\r\n    function addSeller(bytes32 _manufacturerId, bytes32 _sellerName, bytes32 _sellerBrand, bytes32 _sellerCode,\r\n        uint256 _sellerNum, bytes32 _sellerManager, bytes32 _sellerAddress) public {\r\n        sellers[sellerCount] = Seller(sellerCount, _sellerName, _sellerBrand, _sellerCode,\r\n        _sellerNum, _sellerManager, _sellerAddress);\r\n        sellerCount++;\r\n\r\n        sellersWithManufacturer[_manufacturerId].push(_sellerCode);\r\n    }\r\n\r\n    function viewSellers() public view returns(uint256[] memory, bytes32[] memory, bytes32[] memory, bytes32[] memory, uint256[] memory, bytes32[] memory, bytes32[] memory) {\r\n        uint256[] memory ids = new uint256[](sellerCount);\r\n        bytes32[] memory snames = new bytes32[](sellerCount);\r\n        bytes32[] memory sbrands = new bytes32[](sellerCount);\r\n        bytes32[] memory scodes = new bytes32[](sellerCount);\r\n        uint256[] memory snums = new uint256[](sellerCount);\r\n        bytes32[] memory smanagers = new bytes32[](sellerCount);\r\n        bytes32[] memory saddress = new bytes32[](sellerCount);\r\n        \r\n        for(uint i = 0; i < sellerCount; i++) {\r\n            ids[i] = sellers[i].sellerId;\r\n            snames[i] = sellers[i].sellerName;\r\n            sbrands[i] = sellers[i].sellerBrand;\r\n            scodes[i] = sellers[i].sellerCode;\r\n            snums[i] = sellers[i].sellerNum;\r\n            smanagers[i] = sellers[i].sellerManager;\r\n            saddress[i] = sellers[i].sellerAddress;\r\n        }\r\n        return (ids, snames, sbrands, scodes, snums, smanagers, saddress);\r\n    }\r\n\r\n    //PRODUCT SECTION\r\n\r\n    function addProduct(bytes32 _manufacturerID, bytes32 _productName, bytes32 _productSN, bytes32 _productBrand,\r\n        uint256 _productPrice, uint256 _manufacturingDate, bytes32 _lotBatchNo) public {\r\n        productItems[productCount] = ProductItem(productCount, _productSN, _productName, _productBrand,\r\n        _productPrice, _manufacturingDate, _lotBatchNo, \"Available\");\r\n        productMap[_productSN] = productCount;\r\n        productCount++;\r\n        productsManufactured[_productSN] = _manufacturerID;\r\n    }\r\n\r\n    function viewProductItems () public view returns(ProductItem[] memory) {\r\n        ProductItem[] memory products = new ProductItem[](productCount);\r\n        \r\n        for(uint i = 0; i < productCount; i++){\r\n            products[i] = ProductItem(\r\n                productItems[i].productId,\r\n                productItems[i].productSN,\r\n                productItems[i].productName,\r\n                productItems[i].productBrand,\r\n                productItems[i].productPrice,\r\n                productItems[i].manufacturingDate,\r\n                productItems[i].lotBatchNo,\r\n                productItems[i].productStatus\r\n            );\r\n        }\r\n        return products;\r\n    }\r\n\r\n    //SELL Product\r\n\r\n    function manufacturerSellProduct(bytes32 _productSN, bytes32 _sellerCode) public {\r\n        productsWithSeller[_sellerCode].push(_productSN);\r\n        productsForSale[_productSN] = _sellerCode;\r\n    }\r\n\r\n    function sellerSellProduct(bytes32 _productSN, bytes32 _consumerCode) public {   \r\n        bytes32 pStatus;\r\n        uint256 j;\r\n\r\n        for(uint256 i = 0; i < productCount; i++) {\r\n            if(productItems[i].productSN == _productSN) {\r\n                j = i;\r\n                break;\r\n            }\r\n        }\r\n\r\n        pStatus = productItems[j].productStatus;\r\n        if(pStatus == \"Available\") {\r\n            productItems[j].productStatus = \"NA\";\r\n            productsWithConsumer[_consumerCode].push(_productSN);\r\n            productsSold[_productSN] = _consumerCode;\r\n        }\r\n    }\r\n\r\n    function queryProductsList(bytes32 _sellerCode) public view returns(uint256[] memory, bytes32[] memory, bytes32[] memory, bytes32[] memory, uint256[] memory, bytes32[] memory){\r\n        bytes32[] memory productSNs = productsWithSeller[_sellerCode];\r\n        uint256 k=0;\r\n\r\n        uint256[] memory pids = new uint256[](productCount);\r\n        bytes32[] memory pSNs = new bytes32[](productCount);\r\n        bytes32[] memory pnames = new bytes32[](productCount);\r\n        bytes32[] memory pbrands = new bytes32[](productCount);\r\n        uint256[] memory pprices = new uint256[](productCount);\r\n        bytes32[] memory pstatus = new bytes32[](productCount);\r\n\r\n        \r\n        for(uint i=0; i<productCount; i++){\r\n            for(uint j=0; j<productSNs.length; j++){\r\n                if(productItems[i].productSN==productSNs[j]){\r\n                    pids[k] = productItems[i].productId;\r\n                    pSNs[k] = productItems[i].productSN;\r\n                    pnames[k] = productItems[i].productName;\r\n                    pbrands[k] = productItems[i].productBrand;\r\n                    pprices[k] = productItems[i].productPrice;\r\n                    pstatus[k] = productItems[i].productStatus;\r\n                    k++;\r\n                }\r\n            }\r\n        }\r\n        return(pids, pSNs, pnames, pbrands, pprices, pstatus);\r\n    }\r\n\r\n    function querySellersList(bytes32 _manufacturerCode) public view returns(uint256[] memory, bytes32[] memory, bytes32[] memory, bytes32[] memory, uint256[] memory, bytes32[] memory, bytes32[] memory) {\r\n        bytes32[] memory sellerCodes = sellersWithManufacturer[_manufacturerCode];\r\n        uint256 k = 0;\r\n        uint256[] memory ids = new uint256[](sellerCount);\r\n        bytes32[] memory snames = new bytes32[](sellerCount);\r\n        bytes32[] memory sbrands = new bytes32[](sellerCount);\r\n        bytes32[] memory scodes = new bytes32[](sellerCount);\r\n        uint256[] memory snums = new uint256[](sellerCount);\r\n        bytes32[] memory smanagers = new bytes32[](sellerCount);\r\n        bytes32[] memory saddress = new bytes32[](sellerCount);\r\n        \r\n        for(uint i = 0; i < sellerCount; i++) {\r\n            for(uint j = 0; j < sellerCodes.length; j++) {\r\n                if(sellers[i].sellerCode == sellerCodes[j]) {\r\n                    ids[k] = sellers[i].sellerId;\r\n                    snames[k] = sellers[i].sellerName;\r\n                    sbrands[k] = sellers[i].sellerBrand;\r\n                    scodes[k] = sellers[i].sellerCode;\r\n                    snums[k] = sellers[i].sellerNum;\r\n                    smanagers[k] = sellers[i].sellerManager;\r\n                    saddress[k] = sellers[i].sellerAddress;\r\n                    k++;\r\n                    break;\r\n                }\r\n            }\r\n        }\r\n\r\n        return (ids, snames, sbrands, scodes, snums, smanagers, saddress);\r\n    }\r\n\r\n    function getPurchaseHistory(bytes32 _consumerCode) public view returns (bytes32[] memory, bytes32[] memory, bytes32[] memory, uint256[] memory, bytes32[] memory) {\r\n        bytes32[] memory productSNs = productsWithConsumer[_consumerCode];\r\n        bytes32[] memory sellerCodes = new bytes32[](productSNs.length);\r\n        bytes32[] memory manufacturerCodes = new bytes32[](productSNs.length);\r\n        uint256[] memory manufacturingDates = new uint256[](productSNs.length);\r\n        bytes32[] memory lotBatchNos = new bytes32[](productSNs.length);\r\n        \r\n        for(uint i = 0; i < productSNs.length; i++) {\r\n            sellerCodes[i] = productsForSale[productSNs[i]];\r\n            manufacturerCodes[i] = productsManufactured[productSNs[i]];\r\n            uint256 productId = productMap[productSNs[i]];\r\n            manufacturingDates[i] = productItems[productId].manufacturingDate;\r\n            lotBatchNos[i] = productItems[productId].lotBatchNo;\r\n        }\r\n        return (productSNs, sellerCodes, manufacturerCodes, manufacturingDates, lotBatchNos);\r\n    }\r\n\r\n    // Verify\r\n\r\n    function verifyProduct(bytes32 _productSN, bytes32 _consumerCode) public view returns(bool) {\r\n        return (productsSold[_productSN] == _consumerCode);\r\n    }\r\n}\r\n",
  "sourcePath": "C:\\Users\\vivek\\Desktop\\Fake-Product-Identification\\contracts\\product.sol",
  "compiler": {
    "name": "solc",
    "version": "0.8.12+commit.f00d7308.Emscripten.clang"
  },
  "schemaVersion": "3.4.16",
  "updatedAt": "2024-05-04T04:17:38.637Z",
  "networkType": "ethereum",
  "devdoc": {
    "kind": "dev",
    "methods": {},
    "version": 1
  },
  "userdoc": {
    "kind": "user",
    "methods": {},
    "version": 1
  }
}